:020000040800F2
:1000000000000220490A0008D1090008D7090008A9
:10001000DD090008E3090008E90900080000000004
:10002000000000000000000000000000814F0008F8
:10003000EF09000800000000D15100083952000803
:10004000990A0008990A0008990A0008990A000804
:10005000990A0008990A0008990A0008990A0008F4
:10006000990A0008990A0008990A0008990A0008E4
:10007000990A0008990A0008990A0008990A0008D4
:10008000990A0008990A0008990A0008990A0008C4
:10009000990A0008990A0008990A0008990A0008B4
:1000A000990A0008990A0008990A0008990A0008A4
:1000B000990A0008990A0008FD090008990A000831
:1000C000990A0008990A0008990A0008990A000884
:1000D000990A0008990A0008110A0008990A0008FC
:1000E000990A0008990A0008990A0008990A000864
:1000F000990A0008990A0008990A0008990A000854
:10010000990A0008990A0008990A0008990A000843
:10011000990A0008990A0008990A0008990A000833
:10012000990A0008990A0008990A0008990A000823
:10013000990A00080000000000000000990A000869
:10014000990A0008990A0008990A0008990A000803
:10015000990A0008990A0008990A0008990A0008F3
:10016000990A0008990A0008990A0008990A0008E3
:10017000990A0008990A0008000000000000000029
:08018000990A0008990A000821
:1001900010B5054C237833B9044B13B10448AFF3C1
:1001A00000800123237010BD10000020000000001B
:1001B000C871000808B5034B1BB103490348AFF3EE
:1001C000008008BD0000000014000020C871000875
:1001D000F0B400EB4003DFF8880000EBC30000F14F
:1001E00018063069F7687568874232D3B368DC1B3C
:1001F000631E934214D37D19D01900BF11F8013B3F
:1002000005F8013B013A05D011F8013B05F8013B27
:10021000013AF3D1BFF35F8FF0600120F0BC70476B
:10022000C018904219D37819121B11F8013B00F83D
:10023000013B013CF9D1141C05D011F8013B05F834
:10024000013B013AF9D1BFF35F8FF4600120F0BCAC
:100250007047C01B01389042CDD20020F0BC7047DF
:10026000082F012053B94AB9002908BF00281CBF34
:100270004FF0FF314FF0FF3000F074B9ADF1080CD2
:100280006DE904CE00F006F8DDF804E0DDE90223B4
:1002900004B070472DE9F047089D04468E46002BB8
:1002A0004DD18A42944669D9B2FA82F252B101FA2A
:1002B00002F3C2F1200120FA01F10CFA02FC41EA3A
:1002C000030E94404FEA1C48210CBEFBF8F61FFABF
:1002D0008CF708FB16E341EA034306FB07F199425A
:1002E0000AD91CEB030306F1FF3080F01F8199420D
:1002F00040F21C81023E63445B1AA4B2B3FBF8F0E7
:1003000008FB103344EA034400FB07F7A7420AD96D
:100310001CEB040400F1FF3380F00A81A74240F295
:1003200007816444023840EA0640E41B00261DB100
:10033000D4400023C5E900433146BDE8F0878B4235
:1003400009D9002D00F0EF800026C5E900013046F4
:100350003146BDE8F087B3FA83F6002E4AD18B42CE
:1003600002D3824200F2F980841A61EB0303012078
:100370009E46002DE0D0C5E9004EDDE702B9FFDE64
:10038000B2FA82F2002A40F09280A1EB0C014FEA0F
:100390001C471FFA8CFE0126200CB1FBF7F307FB6C
:1003A000131140EA01410EFB03F0884208D91CEB0F
:1003B000010103F1FF3802D2884200F2CB804346AC
:1003C000091AA4B2B1FBF7F007FB101144EA01448B
:1003D0000EFB00FEA64508D91CEB040400F1FF311A
:1003E00002D2A64500F2BB800846A4EB0E0440EA08
:1003F00003409CE7C6F12007B34022FA07FC4CEA11
:10040000030C20FA07F401FA06F31C43F9404FEA03
:100410001C4900FA06F3B1FBF9F8200C1FFA8CFE18
:1004200009FB181140EA014108FB0EF0884202FA6C
:1004300006F20BD91CEB010108F1FF3A80F088802D
:10044000884240F28580A8F102086144091AA4B2EA
:10045000B1FBF9F009FB101144EA014100FB0EFE6B
:100460008E4508D91CEB010100F1FF346CD28E459A
:100470006AD90238614440EA0840A0FB0294A1EB2B
:100480000E01A142C846A64656D353D05DB1B3EB88
:10049000080261EB0E0101FA07F722FA06F3F140B8
:1004A0001F43C5E9007100263146BDE8F087C2F15F
:1004B0002003D8400CFA02FC21FA03F391400143D7
:1004C0004FEA1C471FFA8CFEB3FBF7F007FB103610
:1004D0000B0C43EA064300FB0EF69E4204FA02F4BC
:1004E00008D91CEB030300F1FF382FD29E422DD90F
:1004F000023863449B1B89B2B3FBF7F607FB163344
:1005000041EA034106FB0EF38B4208D91CEB0101C3
:1005100006F1FF3816D28B4214D9023E6144C91A43
:1005200046EA004638E72E46284605E70646E3E653
:100530001846F8E64B45A9D2B9EB020864EB0C0E5D
:100540000138A3E74646EAE7204694E74046D1E76C
:10055000D0467BE7023B614432E7304609E764441A
:10056000023842E7704700BF80B582B002AF184B37
:100570001B68174A43F00103136000F08FFA00F084
:100580006DF800F0FFF800F0D3F805F0D5F806F0AC
:1005900005F84FF0FF3306220E490F4801F055FDD4
:1005A0000E4B019302230093002382220C490D4835
:1005B00003F0ECFA0C4B01930223009300238222F8
:1005C0000A490B4803F0E2FA03F042FCFEE700BFE1
:1005D000001000E0E07100082C00002070000020F6
:1005E000E8710008F505000874000020F0710008AB
:1005F0002906000880B582B000AF78604FF0FF3365
:100600001B220649064801F020FD064B4FF08052A0
:100610001A60BFF34F8FBFF36F8FEFE7F8710008D9
:100620002C00002004ED00E080B582B000AF7860BF
:100630004FF0FF331B220649064801F006FD064B2A
:100640004FF080521A60BFF34F8FBFF36F8FEFE709
:10065000147200082C00002004ED00E080B594B076
:1006600000AF07F1200330220021184606F0A4FD58
:1006700007F10C0300221A605A609A60DA601A616E
:100680000023BB60284B1B6C274A43F08053136444
:10069000254B1B6C03F08053BB60BB6800237B6061
:1006A000224B1B68214A43F4804313601F4B1B6895
:1006B00003F480437B607B6802233B620123FB627F
:1006C00010233B630223BB630023FB6308233B64CB
:1006D000A0237B640223BB640423FB6407F1200393
:1006E000184600F02DFD0346002B01D000F076F8EF
:1006F0000F23FB6002233B6100237B614FF4A05377
:10070000BB614FF48053FB6107F10C0305211846D0
:1007100000F08EFF0346002B01D000F05FF800BF11
:100720005037BD4680BD00BF003802400070004019
:1007300080B500AF114B124A1A60104B4FF4E132F2
:100740005A600E4B00229A600C4B0022DA600B4B71
:1007500000221A61094B0C225A61084B00229A614F
:10076000064B0022DA61054801F022FC0346002B0B
:1007700001D000F033F800BF80BD00BF2C00002086
:100780000044004080B483B000AF00237B60094B7D
:100790001B6B084A43F001031363064B1B6B03F00A
:1007A00001037B607B6800BF0C37BD465DF8047BAE
:1007B000704700BF0038024080B582B000AF78605B
:1007C0007B681B68044A934201D100F089F900BF9D
:1007D0000837BD4680BD00BF0008004080B400AFB0
:1007E00072B600BFFEE7000080B483B000AF002304
:1007F0007B60104B5B6C0F4A43F4804353640D4B9A
:100800005B6C03F480437B607B6800233B60094B97
:100810001B6C084A43F080531364064B1B6C03F0B7
:1008200080533B603B6800BF0C37BD465DF8047BDE
:10083000704700BF0038024080B58AB000AF7860D2
:1008400007F1140300221A605A609A60DA601A6194
:100850007B681B681D4A934233D100233B611C4BCC
:100860001B6C1B4A43F400331364194B1B6C03F4D9
:1008700000333B613B690023FB60154B1B6B144A43
:1008800043F001031363124B1B6B03F00103FB6086
:10089000FB680C237B610223BB610023FB61032304
:1008A0003B6207237B6207F114031946094800F0F5
:1008B000ABFA00220021262000F0EAF9262000F001
:1008C00003FA00BF2837BD4680BD00BF004400408A
:1008D000003802400000024080B58EB000AF786062
:1008E0000023FB620023BB620023FB60334B1B6CC5
:1008F000324A43F004031364304B1B6C03F00403CF
:10090000FB60FB6807F1100207F11403114618465B
:1009100001F06EF83B6AFB62FB6A002B03D101F029
:100920003FF8786304E001F03BF803465B007B632B
:100930007B6B234AA2FB03239B0C013BBB62214B35
:10094000214A1A601F4B40F2E732DA601D4ABB6A47
:1009500053601C4B00221A611A4B00229A60194BFB
:1009600000229A61174801F075F8034687F8333082
:1009700097F83330002B1BD1124801F0C5F803461D
:1009800087F8333097F83330002B11D11E2000F058
:100990009BF97B680F2B08D8002279681E2000F095
:1009A00077F90A4A7B68136002E0012387F8333045
:1009B00097F8333018463837BD4680BD00380240BE
:1009C00083DE1B4378000020000800400400002064
:1009D00080B400AFFEE780B400AFFEE780B400AFA4
:1009E000FEE780B400AFFEE780B400AFFEE780B45E
:1009F00000AF00BFBD465DF8047B704780B500AF17
:100A0000024801F0F1F800BF80BD00BF780000206F
:100A100080B500AF024801F0ABFB00BF80BD00BF56
:100A20002C00002080B400AF064BD3F88830054A74
:100A300043F47003C2F8883000BFBD465DF8047B04
:100A4000704700BF00ED00E0DFF834D00D480E49DC
:100A50000E4A002302E0D458C4500433C4188C4218
:100A6000F9D30B4A0B4C002301E013600432A2427D
:100A7000FBD3FFF7D7FF06F05DFBFFF775FD70476F
:100A80000000022000000020100000204073000839
:100A900010000020DC540120FEE7000080B500AF0C
:100AA0000E4B1B680D4A43F4007313600B4B1B681D
:100AB0000A4A43F480631360084B1B68074A43F4F7
:100AC00080731360032000F0D8F80F20FFF704FFB5
:100AD000FFF78AFE0023184680BD00BF003C02409D
:100AE00080B400AF064B1B781A46064B1B681344B4
:100AF000044A136000BFBD465DF8047B704700BF29
:100B000008000020C000002080B400AF034B1B6829
:100B10001846BD465DF8047B704700BFC00000204A
:100B200080B485B000AF78607B6803F00703FB609A
:100B30000C4BDB68BB60BA684FF6FF031340BB6029
:100B4000FB681A02BB68134343F0BF6343F40033EE
:100B5000BB60044ABB68D36000BF1437BD465DF874
:100B6000047B704700ED00E080B400AF044BDB680D
:100B70001B0A03F007031846BD465DF8047B704767
:100B800000ED00E080B483B000AF0346FB7197F93D
:100B90000730002B0BDBFB7903F01F02074997F9A5
:100BA00007305B09012000FA02F241F8232000BF60
:100BB0000C37BD465DF8047B704700BF00E100E0E4
:100BC00080B483B000AF03463960FB7197F90730FA
:100BD000002B0ADB3B68DAB20C4997F907301201A7
:100BE000D2B20B4483F800230AE03B68DAB208492A
:100BF000FB7903F00F03043B1201D2B20B441A76C7
:100C000000BF0C37BD465DF8047B704700E100E093
:100C100000ED00E080B489B000AFF860B9607A60A0
:100C2000FB6803F00703FB61FB69C3F10703042BB7
:100C300028BF0423BB61FB690433062B02D9FB697F
:100C4000033B00E000237B614FF0FF32BB6902FAF7
:100C500003F3DA43BB681A407B699A404FF0FF31D7
:100C60007B6901FA03F3D9437B680B4013431846B1
:100C70002437BD465DF8047B704780B582B000AF75
:100C800078607868FFF74CFF00BF0837BD4680BD2D
:100C900080B586B000AF0346B9607A60FB7300236D
:100CA0007B61FFF761FF78617A68B9687869FFF75F
:100CB000B1FF024697F90F3011461846FFF780FF43
:100CC00000BF1837BD4680BD80B582B000AF034677
:100CD000FB7197F907301846FFF754FF00BF08373C
:100CE000BD4680BD80B584B000AF78607B689B6DE9
:100CF000FB60FFF709FFB8607B6893F83530DBB223
:100D0000022B08D07B6880225A657B68002283F81A
:100D10003420012352E07B681B681A687B681B68DB
:100D200022F016021A607B681B685A697B681B6890
:100D300022F080025A617B681B6C002B03D17B6818
:100D40009B6C002B07D07B681B681A687B681B684C
:100D500022F008021A607B681B681A687B681B68AF
:100D600022F001021A6013E0FFF7CEFE0246BB68D4
:100D7000D31A052B0CD97B6820225A657B68032285
:100D800083F835207B68002283F83420032315E0A4
:100D90007B681B681B6803F00103002BE4D17B68B0
:100DA000DB6D3F229A40FB689A607B68012283F8E2
:100DB00035207B68002283F8342000231846103742
:100DC000BD4680BD80B483B000AF78607B6893F887
:100DD0003530DBB2022B04D07B6880225A650123B8
:100DE0000CE07B68052283F835207B681B681A6855
:100DF0007B681B6822F001021A60002318460C373A
:100E0000BD465DF8047B704780B489B000AF786060
:100E1000396000237B6100233B610023BB61002319
:100E2000FB616BE10122FB6902FA03F37B613B6822
:100E30001B687A6913403B613A697B699A4240F0CA
:100E40005A813B685B6803F00303012B05D03B68C4
:100E50005B6803F00303022B30D17B689B68BB61A6
:100E6000FB695B00032202FA03F3DB43BA69134018
:100E7000BB613B68DA68FB695B0002FA03F3BA699D
:100E80001343BB617B68BA699A607B685B68BB612E
:100E90000122FB6902FA03F3DB43BA691340BB6129
:100EA0003B685B681B0903F00102FB6902FA03F36C
:100EB000BA691343BB617B68BA695A603B685B6877
:100EC00003F00303032B17D07B68DB68BB61FB696E
:100ED0005B00032202FA03F3DB43BA691340BB61F0
:100EE0003B689A68FB695B0002FA03F3BA69134333
:100EF000BB617B68BA69DA603B685B6803F0030337
:100F0000022B23D1FB69DA087B68083253F82230C0
:100F1000BB61FB6903F007039B000F2202FA03F396
:100F2000DB43BA691340BB613B681A69FB6903F094
:100F300007039B0002FA03F3BA691343BB61FB6921
:100F4000DA087B680832B96943F822107B681B68AD
:100F5000BB61FB695B00032202FA03F3DB43BA695E
:100F60001340BB613B685B6803F00302FB695B00F5
:100F700002FA03F3BA691343BB617B68BA691A606A
:100F80003B685B6803F44033002B00F0B48000231F
:100F9000FB60604B5B6C5F4A43F4804353645D4B82
:100FA0005B6C03F48043FB60FB685B4AFB699B0856
:100FB000023352F82330BB61FB6903F003039B004B
:100FC0000F2202FA03F3DB43BA691340BB617B686B
:100FD000524A93422BD07B68514A934225D07B687A
:100FE000504A93421FD07B684F4A934219D07B6886
:100FF0004E4A934213D07B684D4A93420DD07B6892
:101000004C4A934207D07B684B4A934201D1072355
:101010000EE008230CE006230AE0052308E0042381
:1010200006E0032304E0022302E0012300E00023A2
:10103000FA6902F0030292009340BA691343BB615C
:101040003549FB699B080233BA6941F823203B4BC1
:101050009B68BB613B69DB43BA691340BB613B687A
:101060005B6803F48013002B03D0BA693B69134318
:10107000BB61324ABB699360304BDB68BB613B6943
:10108000DB43BA691340BB613B685B6803F4001340
:10109000002B03D0BA693B691343BB61274ABB6984
:1010A000D360264B5B68BB613B69DB43BA69134085
:1010B000BB613B685B6803F40033002B03D0BA6963
:1010C0003B691343BB611D4ABB6953601B4B1B68E3
:1010D000BB613B69DB43BA691340BB613B685B683A
:1010E00003F48033002B03D0BA693B691343BB611F
:1010F000124ABB691360FB690133FB61FB690F2B6B
:101100007FF690AE00BF00BF2437BD465DF8047B7C
:10111000704700BF00380240003801400000024024
:101120000004024000080240000C0240001002408F
:101130000014024000180240001C0240003C014024
:1011400080B586B000AF78607B68002B01D10123A9
:1011500067E27B681B6803F00103002B75D0884BA6
:101160009B6803F00C03042B0CD0854B9B6803F0A9
:101170000C03082B12D1824B5B6803F48003B3F598
:10118000800F0BD17E4B1B6803F40033002B5BD028
:101190007B685B68002B57D1012342E27B685B6868
:1011A000B3F5803F06D1764B1B68754A43F4803314
:1011B00013601DE07B685B68B3F5A02F0CD1704B0A
:1011C0001B686F4A43F4802313606D4B1B686C4AA5
:1011D00043F4803313600BE0694B1B68684A23F4C7
:1011E00080331360664B1B68654A23F480231360C9
:1011F0007B685B68002B13D0FFF786FC386108E042
:10120000FFF782FC02463B69D31A642B01D9032302
:1012100007E25B4B1B6803F40033002BF0D014E0B3
:10122000FFF772FC386108E0FFF76EFC02463B698D
:10123000D31A642B01D90323F3E1514B1B6803F448
:101240000033002BF0D100E000BF7B681B6803F087
:101250000203002B63D04A4B9B6803F00C03002B66
:101260000BD0474B9B6803F00C03082B1CD1444B5D
:101270005B6803F48003002B16D1414B1B6803F01D
:101280000203002B05D07B68DB68012B01D0012312
:10129000C7E13B4B1B6823F0F8027B681B69DB004E
:1012A000374913430B603AE07B68DB68002B20D0A2
:1012B000344B01221A60FFF727FC386108E0FFF782
:1012C00023FC02463B69D31A022B01D90323A8E170
:1012D0002B4B1B6803F00203002BF0D0284B1B683C
:1012E00023F0F8027B681B69DB00254913430B6080
:1012F00015E0244B00221A60FFF706FC386108E075
:10130000FFF702FC02463B69D31A022B01D90323E3
:1013100087E11B4B1B6803F00203002BF0D17B68B5
:101320001B6803F00803002B36D07B685B69002B39
:1013300016D0154B01221A60FFF7E6FB386108E072
:10134000FFF7E2FB02463B69D31A022B01D90323C4
:1013500067E10B4B5B6F03F00203002BF0D01BE047
:10136000094B00221A60FFF7CFFB38610EE0FFF750
:10137000CBFB02463B69D31A022B07D9032350E16A
:101380000038024000004742800E4742884B5B6FA6
:1013900003F00203002BEAD17B681B6803F004030F
:1013A000002B00F097800023FB75814B1B6C03F032
:1013B0008053002B0FD10023BB607D4B1B6C7C4AFC
:1013C00043F0805313647A4B1B6C03F08053BB6073
:1013D000BB680123FB75774B1B6803F48073002BFC
:1013E00018D1744B1B68734A43F480731360FFF782
:1013F0008BFB386108E0FFF787FB02463B69D31A95
:10140000022B01D903230CE16A4B1B6803F48073A0
:10141000002BF0D07B689B68012B06D1644B1B6FBF
:10142000634A43F0010313671CE07B689B68052B4C
:101430000CD15F4B1B6F5E4A43F0040313675C4B98
:101440001B6F5B4A43F0010313670BE0584B1B6FA4
:10145000574A23F001031367554B1B6F544A23F07F
:10146000040313677B689B68002B15D0FFF74CFBC8
:1014700038610AE0FFF748FB02463B69D31A41F2A4
:101480008832934201D90323CBE0494B1B6F03F011
:101490000203002BEED014E0FFF736FB38610AE0C0
:1014A000FFF732FB02463B69D31A41F2883293427E
:1014B00001D90323B5E03E4B1B6F03F00203002B61
:1014C000EED1FB7D012B05D1394B1B6C384A23F043
:1014D000805313647B689B69002B00F0A180344B20
:1014E0009B6803F00C03082B5CD07B689B69022B84
:1014F00041D1314B00221A60FFF706FB386108E04A
:10150000FFF702FB02463B69D31A022B01D90323E2
:1015100087E0274B1B6803F00073002BF0D17B683A
:10152000DA697B681B6A1A437B685B6A9B011A4312
:101530007B689B6A5B08013B1B041A437B68DB6A80
:101540001B061B4913434B601B4B01221A60FFF71C
:10155000DBFA386108E0FFF7D7FA02463B69D31A95
:10156000022B01D903235CE0114B1B6803F00073CD
:10157000002BF0D054E0104B00221A60FFF7C4FAA1
:10158000386108E0FFF7C0FA02463B69D31A022B24
:1015900001D9032345E0064B1B6803F00073002BC1
:1015A000F0D13DE07B689B69012B07D1012338E036
:1015B0000038024000700040600047421B4B5B68EF
:1015C000FB607B689B69012B28D0FB6803F48002D9
:1015D0007B68DB699A4221D1FB6803F03F027B689C
:1015E0001B6A9A421AD1FA6847F6C07313407A68A8
:1015F000526A9201934211D1FB6803F440327B6836
:101600009B6A5B08013B1B049A4207D1FB6803F00D
:1016100070627B68DB6A1B069A4201D0012300E0FE
:10162000002318461837BD4680BD00BF0038024071
:1016300080B584B000AF786039607B68002B01D141
:101640000123CCE0684B1B6803F007033A689A4219
:101650000CD9654B3A68D2B21A70634B1B6803F021
:1016600007033A689A4201D00123B8E07B681B68FF
:1016700003F00203002B20D07B681B6803F00403F7
:10168000002B05D0594B9B68584A43F4E0539360B4
:101690007B681B6803F00803002B05D0534B9B6845
:1016A000524A43F460439360504B9B6823F0F0022E
:1016B0007B689B684D4913438B607B681B6803F014
:1016C0000103002B44D07B685B68012B07D1474B9B
:1016D0001B6803F40033002B19D101237FE07B68E2
:1016E0005B68022B03D07B685B68032B07D13F4B01
:1016F0001B6803F00073002B09D101236FE03B4B03
:101700001B6803F00203002B01D1012367E0374B74
:101710009B6823F003027B685B68344913438B604A
:10172000FFF7F2F9F8600AE0FFF7EEF90246FB680E
:10173000D31A41F28832934201D903234FE02B4B55
:101740009B6803F00C027B685B689B009A42EBD1BC
:10175000254B1B6803F007033A689A420CD2224BD0
:101760003A68D2B21A70204B1B6803F007033A683C
:101770009A4201D0012332E07B681B6803F0040326
:10178000002B08D0194B9B6823F4E0527B68DB6880
:10179000164913438B607B681B6803F00803002B1A
:1017A00009D0124B9B6823F460427B681B69DB0005
:1017B0000E4913438B6000F021F802460B4B9B68E7
:1017C0001B0903F00F030A49CB5C22FA03F3094A11
:1017D0001360094B1B681846FFF77EF80023184674
:1017E0001037BD4680BD00BF003C024000380240BB
:1017F0000473000800000020040000202DE9B04F11
:1018000090B000AF00237B630023FB6300233B63A6
:101810000023BB63594B9B6803F00C03082B0DD0CE
:10182000082B00F2A180002B02D0042B03D09BE0F8
:10183000534BBB639BE0534BBB6398E04F4B5B68E0
:1018400003F03F037B634D4B5B6803F48003002B85
:1018500028D04A4B5B689B0900223B627A623B6A54
:10186000C3F308000021474B03FB01F2002300FBF8
:1018700003F31344434AA0FB0212FA620A46BA6217
:10188000FA6A1344FB627B6B0022BB61FA61D7E901
:101890000623D7E90A01FEF7E5FC02460B4613468C
:1018A000FB6353E0354B5B689B0900223B617A6127
:1018B0003B69C3F3080A4FF0000B52465B464FF0FA
:1018C00000004FF00001590141EAD2615001024687
:1018D0000B46B2EB0A0863EB0B094FF000024FF026
:1018E00000034FEA891343EA98634FEA8812B2EB88
:1018F000080463EB09054FF000024FF00003EB0012
:1019000043EA5473E20014461D4614EB0A033B609D
:1019100045EB0B037B604FF000024FF00003D7E96B
:10192000004529468B02214643EA915321468A020B
:10193000104619467B6B0022BB60FA60D7E9022390
:10194000FEF790FC02460B461346FB630B4B5B68AD
:101950001B0C03F0030301335B003B63FA6B3B6B2F
:10196000B2FBF3F3BB6302E0054BBB6300BFBB6B91
:1019700018464037BD46BDE8B08F00BF0038024072
:101980000024F40040787D0180B400AF034B1B6855
:101990001846BD465DF8047B704700BF000000207C
:1019A00080B500AFFFF7F0FF0246054B9B689B0A2E
:1019B00003F007030349CB5C22FA03F3184680BD0A
:1019C000003802401473000880B500AFFFF7DCFF59
:1019D0000246054B9B685B0B03F007030349CB5C96
:1019E00022FA03F3184680BD003802401473000841
:1019F00080B483B000AF786039607B680F221A60D2
:101A0000124B9B6803F003027B685A600F4B9B6884
:101A100003F0F0027B689A600C4B9B6803F4E05281
:101A20007B68DA60094B9B68DB0803F4E0527B6853
:101A30001A61074B1B6803F007023B681A6000BF7E
:101A40000C37BD465DF8047B704700BF003802408C
:101A5000003C024080B582B000AF78607B68002B0C
:101A600001D1012341E07B6893F83D30DBB2002BCC
:101A700006D17B68002283F83C20786800F039F8B2
:101A80007B68022283F83D207B681A687B680433F8
:101A90001946104600F0D8F97B68012283F84620E9
:101AA0007B68012283F83E207B68012283F83F2077
:101AB0007B68012283F840207B68012283F8412063
:101AC0007B68012283F842207B68012283F843204F
:101AD0007B68012283F844207B68012283F845203B
:101AE0007B68012283F83D20002318460837BD4655
:101AF00080BD80B483B000AF786000BF0C37BD46B6
:101B00005DF8047B7047000080B485B000AF78605A
:101B10007B6893F83D30DBB2012B01D001234EE00E
:101B20007B68022283F83D207B681B68DA687B684B
:101B30001B6842F00102DA607B681B68234A93420B
:101B400022D07B681B68B3F1804F1DD07B681B6877
:101B50001F4A934218D07B681B681E4A934213D0D9
:101B60007B681B681C4A93420ED07B681B681B4A2B
:101B7000934209D07B681B68194A934204D07B6862
:101B80001B68184A934211D17B681B689B6803F05D
:101B90000703FB60FB68062B10D07B681B681A6884
:101BA0007B681B6842F001021A6007E07B681B68D3
:101BB0001A687B681B6842F001021A60002318460D
:101BC0001437BD465DF8047B704700BF000001403C
:101BD0000004004000080040000C004000040140E8
:101BE000004001400018004080B582B000AF78602E
:101BF0007B681B681B6903F00203022B22D17B6800
:101C00001B68DB6803F00203022B1BD17B681B6897
:101C10006FF002021A617B6801221A777B681B68E9
:101C20009B6903F00303002B03D0786800F0EEF803
:101C300005E0786800F0E0F8786800F0F1F87B687B
:101C400000221A777B681B681B6903F00403042BCE
:101C500022D17B681B68DB6803F00403042B1BD1D3
:101C60007B681B686FF004021A617B6802221A7796
:101C70007B681B689B6903F44073002B03D0786872
:101C800000F0C4F805E0786800F0B6F8786800F075
:101C9000C7F87B6800221A777B681B681B6903F012
:101CA0000803082B22D17B681B68DB6803F008035C
:101CB000082B1BD17B681B686FF008021A617B68D8
:101CC00004221A777B681B68DB6903F00303002B8F
:101CD00003D0786800F09AF805E0786800F08CF896
:101CE000786800F09DF87B6800221A777B681B6893
:101CF0001B6903F01003102B22D17B681B68DB6883
:101D000003F01003102B1BD17B681B686FF01002CF
:101D10001A617B6808221A777B681B68DB6903F409
:101D20004073002B03D0786800F070F805E0786805
:101D300000F062F8786800F073F87B6800221A7788
:101D40007B681B681B6903F00103012B0ED17B68C4
:101D50001B68DB6803F00103012B07D17B681B685C
:101D60006FF001021A617868FEF726FD7B681B6838
:101D70001B6903F08003802B0ED17B681B68DB6836
:101D800003F08003802B07D17B681B686FF0800213
:101D90001A61786800F002F97B681B681B6903F020
:101DA0004003402B0ED17B681B68DB6803F04003C7
:101DB000402B07D17B681B686FF040021A6178687E
:101DC00000F038F87B681B681B6903F02003202BA8
:101DD0000ED17B681B68DB6803F02003202B07D142
:101DE0007B681B686FF020021A61786800F0CCF8FD
:101DF00000BF0837BD4680BD80B483B000AF7860B7
:101E000000BF0C37BD465DF8047B704780B483B0DB
:101E100000AF786000BF0C37BD465DF8047B7047AB
:101E200080B483B000AF786000BF0C37BD465DF86A
:101E3000047B704780B483B000AF786000BF0C377C
:101E4000BD465DF8047B704780B485B000AF786014
:101E500039607B681B68FB607B68404A934213D003
:101E60007B68B3F1804F0FD07B683D4A93420BD023
:101E70007B683C4A934207D07B683B4A934203D03D
:101E80007B683A4A934208D1FB6823F07003FB60F9
:101E90003B685B68FA681343FB607B682F4A934298
:101EA0002BD07B68B3F1804F27D07B682C4A9342BC
:101EB00023D07B682B4A93421FD07B682A4A9342E7
:101EC0001BD07B68294A934217D07B68284A9342EB
:101ED00013D07B68274A93420FD07B68264A9342EF
:101EE0000BD07B68254A934207D07B68244A9342F3
:101EF00003D07B68234A934208D1FB6823F44073E4
:101F0000FB603B68DB68FA681343FB60FB6823F007
:101F100080023B685B691343FB607B68FA681A6068
:101F20003B689A687B68DA623B681A687B689A62E9
:101F30007B680A4A934203D07B680C4A934203D1E0
:101F40003B681A697B681A637B6801225A6100BF8B
:101F50001437BD465DF8047B704700BF00000140A8
:101F60000004004000080040000C00400004014054
:101F7000004001400044014000480140001800407A
:101F8000001C00400020004080B483B000AF7860A7
:101F900000BF0C37BD465DF8047B704780B483B04A
:101FA00000AF786000BF0C37BD465DF8047B70471A
:101FB00080B582B000AF78607B68002B01D101232F
:101FC0003FE07B6893F83D30DBB2002B06D17B68A5
:101FD000002283F83C207868FEF72EFC7B682422E0
:101FE00083F83D207B681B68DA687B681B6822F4F5
:101FF0000052DA60786800F07BFD7B681B681A6924
:102000007B681B6822F490421A617B681B685A69DE
:102010007B681B6822F02A025A617B681B68DA68B9
:102020007B681B6842F40052DA607B6800221A6405
:102030007B68202283F83D207B68202283F83E20A5
:10204000002318460837BD4680BD80B58AB002AF70
:10205000F860B9603B601346FB8000237B61FB683E
:1020600093F83D30DBB2202B7CD1BB68002B02D033
:10207000FB88002B01D1012375E0FB6893F83C300D
:10208000012B01D102236EE0FB68012283F83C2082
:10209000FB6800221A64FB68212283F83D20FEF7CA
:1020A00033FD7861FB68FA889A84FB68FA88DA84E1
:1020B000FB689B68B3F5805F08D1FB681B69002B48
:1020C00004D10023FB61BB68BB6103E0BB68FB611B
:1020D0000023BB61FB68002283F83C202AE03B68B8
:1020E00000937B6900228021F86800F0F9FA03462A
:1020F000002B01D0032336E0FB69002B0BD1BB6919
:102100001B881A46FB681B68C2F308025A60BB6949
:102110000233BB6107E0FB691A78FB681B685A60F1
:10212000FB690133FB61FB68DB8C9BB2013B9AB21C
:10213000FB68DA84FB68DB8C9BB2002BCFD13B6859
:1021400000937B6900224021F86800F0C9FA034639
:10215000002B01D0032306E0FB68202283F83D20FA
:10216000002300E0022318462037BD4680BD000052
:1021700080B5BAB000AF78607B681B681B68C7F891
:10218000E4307B681B68DB68C7F8E0307B681B685D
:102190005B69C7F8DC300023C7F8D8300023C7F8E4
:1021A000D430D7F8E43003F00F03C7F8D830D7F8AD
:1021B000D830002B0FD1D7F8E43003F02003002BE8
:1021C00009D0D7F8E03003F02003002B03D0786863
:1021D00000F0D3FB56E2D7F8D830002B00F0DE80B9
:1021E000D7F8DC3003F00103002B06D1D7F8E0303C
:1021F00003F49073002B00F0D180D7F8E43003F0A3
:102200000103002B0BD0D7F8E03003F48073002BD0
:1022100005D07B681B6C43F001027B681A64D7F819
:10222000E43003F00403002B0BD0D7F8DC3003F0CC
:102230000103002B05D07B681B6C43F002027B6816
:102240001A64D7F8E43003F00203002B0BD0D7F860
:10225000DC3003F00103002B05D07B681B6C43F0DE
:1022600004027B681A64D7F8E43003F00803002BFB
:1022700011D0D7F8E03003F02003002B05D1D7F8B8
:10228000DC3003F00103002B05D07B681B6C43F0AE
:1022900008027B681A647B681B6C002B00F0ED81E0
:1022A000D7F8E43003F02003002B08D0D7F8E03053
:1022B00003F02003002B02D0786800F05EFB7B68FF
:1022C0001B685B6903F04003402B0CBF0123002314
:1022D000DBB2C7F8D4307B681B6C03F00803002B1B
:1022E00003D1D7F8D430002B4FD0786800F066FACD
:1022F0007B681B685B6903F04003402B41D17B681E
:102300001B681433C7F89C30D7F89C3053E8003F63
:10231000C7F89830D7F8983023F04003C7F8D0308A
:102320007B681B681433D7F8D020C7F8A820C7F8FB
:10233000A430D7F8A410D7F8A82041E80023C7F8A4
:10234000A030D7F8A030002BD9D17B689B6B002B35
:1023500013D07B689B6B7D4A1A657B689B6B184624
:10236000FEF730FD0346002B16D07B689B6B1B6D80
:102370007A68926B104698470EE0786800F09AF9F8
:102380000AE0786800F096F906E0786800F092F9C3
:102390007B6800221A6470E100BF6EE17B681B6BF2
:1023A000012B40F04A81D7F8E43003F01003002BF2
:1023B00000F04381D7F8E03003F01003002B00F069
:1023C0003C810023BB607B681B681B68BB607B682B
:1023D0001B685B68BB60BB687B681B685B6903F05C
:1023E0004003402B40F0B4807B689B6B1B685B68AC
:1023F000A7F8BE30B7F8BE30002B00F040817B68F4
:102400009B8DB7F8BE209A4280F039817B68B7F87F
:10241000BE20DA857B689B6BDB69B3F5807F00F0BB
:1024200088807B681B680C33C7F88830D7F8883001
:1024300053E8003FC7F88430D7F8843023F4807322
:10244000C7F8B8307B681B680C33D7F8B820C7F8DA
:102450009420C7F89030D7F89010D7F8942041E82E
:102460000023C7F88C30D7F88C30002BD9D17B688B
:102470001B6814337B677B6F53E8003F3B673B6F00
:1024800023F00103C7F8B4307B681B681433D7F816
:10249000B420C7F88020FB67F96FD7F8802041E8A7
:1024A0000023BB67BB6F002BE1D17B681B68143333
:1024B0003B663B6E53E8003FFB65FB6D23F040033A
:1024C000C7F8B0307B681B681433D7F8B020FA66C1
:1024D000BB66B96EFA6E41E800237B667B6E002B0B
:1024E000E3D17B68202283F83E207B6800221A63B8
:1024F0007B681B680C33FB64FB6C53E8003FBB64D8
:10250000BB6C23F01003C7F8AC307B681B680C333E
:10251000D7F8AC20BA657B65796DBA6D41E80023C8
:102520003B653B6D002BE3D17B689B6B1846FEF748
:10253000D9FB7B689A8D7B68DB8D9BB2D31A9BB2EB
:102540001946786800F0C0F899E000BF83280008B9
:102550007B689A8D7B68DB8D9BB2D31AA7F8CE304F
:102560007B68DB8D9BB2002B00F08B80B7F8CE3000
:10257000002B00F086807B681B680C33BB63BB6B51
:1025800053E8003F7B637B6B23F49073C7F8C8303C
:102590007B681B680C33D7F8C8207A643B64396CBD
:1025A0007A6C41E80023FB63FB6B002BE3D17B6873
:1025B0001B6814337B627B6A53E8003F3B623B6AD3
:1025C00023F00103C7F8C4307B681B681433D7F8C5
:1025D000C4203A63FB62F96A3A6B41E80023BB62AC
:1025E000BB6A002BE3D17B68202283F83E207B6806
:1025F00000221A637B681B680C333B613B6953E81C
:10260000003FFB60FB6823F01003C7F8C0307B6815
:102610001B680C33D7F8C020FA61BB61B969FA694D
:1026200041E800237B617B69002BE3D1B7F8CE3012
:102630001946786800F048F823E0D7F8E43003F052
:102640008003002B09D0D7F8E03003F08003002B83
:1026500003D0786800F029F914E0D7F8E43003F0EB
:102660004003002B0ED0D7F8E03003F04003002BDE
:1026700008D0786800F069F904E000BF02E000BF0C
:1026800000E000BFE837BD4680BD00BF80B483B026
:1026900000AF786000BF0C37BD465DF8047B704723
:1026A00080B483B000AF786000BF0C37BD465DF8E2
:1026B000047B704780B483B000AF786000BF0C37F4
:1026C000BD465DF8047B704780B483B000AF78608E
:1026D0000B467B8000BF0C37BD465DF8047B70471E
:1026E00080B590B000AFF860B9603B601346FB71F5
:1026F00050E0BB6CB3F1FF3F4CD0BB6C002B07D05C
:10270000FEF702FA02463B68D31ABA6C9A4241D2EB
:10271000FB681B680C33BB62BB6A53E8003F7B62FB
:102720007B6A23F4D073FB63FB681B680C33FA6B82
:102730007A633B63396B7A6B41E80023FB62FB6A87
:10274000002BE5D1FB681B6814337B617B6953E880
:10275000003F3B613B6923F00103BB63FB681B68DF
:102760001433BA6B3A62FB61F9693A6A41E80023B3
:10277000BB61BB69002BE5D1FB68202283F83D20BB
:10278000FB68202283F83E20FB68002283F83C206F
:1027900003230FE0FB681B681A68BB681340BA6824
:1027A0009A420CBF01230023DBB21A46FB799A42FE
:1027B0009FD0002318464037BD4680BD80B495B0F9
:1027C00000AF78607B681B680C337B637B6B53E8DE
:1027D000003F3B633B6B23F49073FB647B681B6897
:1027E0000C33FA6C3A64FB63F96B3A6C41E80023F2
:1027F000BB63BB6B002BE5D17B681B6814333B626A
:102800003B6A53E8003FFB61FB6923F00103BB64B3
:102810007B681B681433BA6CFA62BB62B96AFA6AE5
:1028200041E800237B627B6A002BE5D17B681B6B50
:10283000012B19D17B681B680C33FB60FB6853E8E4
:10284000003FBB60BB6823F010037B647B681B68A0
:102850000C337A6CBA617B617969BA6941E800230B
:102860003B613B69002BE5D17B68202283F83E2049
:102870007B6800221A6300BF5437BD465DF8047BB5
:10288000704780B584B000AF78607B689B6BFB605D
:10289000FB680022DA85FB680022DA84F868FFF71B
:1028A00009FF00BF1037BD4680BD80B485B000AFC2
:1028B00078607B6893F83D30DBB2212B3ED17B689A
:1028C0009B68B3F5805F14D17B681B69002B10D126
:1028D0007B681B6AFB60FB681B881A467B681B6869
:1028E000C2F308025A607B681B6A9A1C7B681A62F2
:1028F00008E07B681B6A591C7A6811621A787B6849
:102900001B685A607B68DB8C9BB2013B9BB27A6888
:102910001946D184002B0FD17B681B68DA687B686D
:102920001B6822F08002DA607B681B68DA687B68CB
:102930001B6842F04002DA60002300E002231846E0
:102940001437BD465DF8047B704780B582B000AF98
:1029500078607B681B68DA687B681B6822F040023D
:10296000DA607B68202283F83D207868FFF78EFECE
:10297000002318460837BD4680BD80B58CB000AF37
:1029800078607B6893F83E30DBB2222B40F0AB805E
:102990007B689B68B3F5805F17D17B681B69002B50
:1029A00013D10023FB627B689B6ABB627B681B6858
:1029B0005B689BB2C3F308039AB2BB6A1A807B6858
:1029C0009B6A9A1C7B689A6226E07B689B6AFB6222
:1029D0000023BB627B689B68B3F5805F07D07B6890
:1029E0009B68002B0AD17B681B69002B06D17B6892
:1029F0001B685B68DAB2FB6A1A7008E07B681B68C8
:102A00005B68DBB203F07F03DAB2FB6A1A707B68A3
:102A10009B6A5A1C7B689A627B68DB8D9BB2013B88
:102A20009BB27A681946D185002B5AD17B681B6806
:102A3000DA687B681B6822F02002DA607B681B681A
:102A4000DA687B681B6822F48072DA607B681B6836
:102A50005A697B681B6822F001025A617B68202258
:102A600083F83E207B681B6B012B35D17B680022ED
:102A70001A637B681B680C337B617B6953E8003FFA
:102A80003B613B6923F010037B627B681B680C335E
:102A90007A6A3A62FB61F9693A6A41E80023BB61EC
:102AA000BB69002BE5D17B681B681B6803F0100332
:102AB000102B0AD10023FB607B681B681B68FB603E
:102AC0007B681B685B68FB60FB687B689B8D1946B5
:102AD0007868FFF7F9FD02E07868FFF7E1FD002371
:102AE00002E0002300E0022318463037BD4680BDD7
:102AF0002DE9B04FC0B000AFC7F8F400D7F8F430FC
:102B00001B681B6923F44050D7F8F430D968D7F814
:102B1000F4301A6840EA01031361D7F8F4309A6878
:102B2000D7F8F4301B691A43D7F8F4305B691A43BD
:102B3000D7F8F430DB691343C7F8F830D7F8F4302E
:102B40001B68DB6823F4164121F00C01D7F8F43040
:102B50001A68D7F8F8300B43D360D7F8F4301B6805
:102B60005B6923F44070D7F8F4309969D7F8F430F2
:102B70001A6840EA01035361D7F8F4301A688F4BA2
:102B80009A4205D0D7F8F4301A688D4B9A4204D196
:102B9000FEF71AFFC7F8FC0003E0FEF701FFC7F8D5
:102BA000FC00D7F8F430DB69B3F5004F40F00C813E
:102BB000D7F8FC300022C7F8E830C7F8EC20D7E996
:102BC0003A4522462B469118B9655B41FB65D7E92A
:102BD0001623214612EB0108294643EB01094FF069
:102BE00000024FF000034FEAC90343EA58734FEA6B
:102BF000C80290469946234618EB0303C7F8E03015
:102C00002B4649EB0303C7F8E430D7F8F4305B6890
:102C10000022C7F8D830C7F8DC20D7E936120B46B7
:102C2000DB183B65134642EB03037B65D7E91423AE
:102C3000D7E93801FDF716FB02460B46614BA3FBB3
:102C400002235B091C01D7F8FC300022C7F8D03002
:102C5000C7F8D420D7E9348942464B469118B96465
:102C60005B41FB64D7E91223414612EB010A494656
:102C700043EB010B4FF000024FF000034FEACB0390
:102C800043EA5A734FEACA0292469B4643461AEBFE
:102C90000303C7F8C8304B464BEB0303C7F8CC30EF
:102CA000D7F8F4305B680022C7F8C030C7F8C420FA
:102CB000D7E930120B46DB183B64134642EB0303A3
:102CC0007B64D7E91023D7E93201FDF7CBFA02463E
:102CD0000B4611463B4BA3FB01235B09642202FB1D
:102CE00003F3CB1ADB0003F13202364BA3FB0223C2
:102CF0005B095B0003F4F8731C44D7F8FC30002236
:102D0000C7F8B830C7F8BC20D7E92E8942464B46F1
:102D10009118B9635B41FB63D7E90E234146511813
:102D2000396349464B417B634FF000024FF000038B
:102D3000D7E90CAB5946CB00514643EA5173514693
:102D4000CA0010461946034642469B18C7F8B030E1
:102D50004B460A4642EB0303C7F8B430D7F8F430C9
:102D60005B680022C7F8A830C7F8AC20D7E92A1260
:102D70000B46DB18BB62134642EB0303FB62D7E949
:102D80000A23D7E92C01FDF76DFA02460B460D4BDD
:102D9000A3FB02135B09642101FB03F3D31ADB00DD
:102DA0003233084AA2FB03235B0903F00702D7F87A
:102DB000F4301B6822449A6005E100BF0010014016
:102DC000001401401F85EB51D7F8FC300022C7F8F2
:102DD000A030C7F8A420D7E9288942464B4691186D
:102DE00039625B417B62D7E9082341465418494662
:102DF00043EB01054FF000024FF00003EB0043EA04
:102E00005473E20014461D464346E318C7F8983051
:102E10004B4645EB0303C7F89C30D7F8F4305B68AA
:102E20000022C7F89030C7F894204FF000024FF00E
:102E30000003D7E9244529468B00214643EA9173D4
:102E400021468A00D7E92601FDF70CFA02460B4617
:102E5000604BA3FB02235B091C01D7F8FC30002266
:102E6000C7F88830C7F88C20D7E9228942464B46FC
:102E70009118B9615B41FB61D7E9062341465118BE
:102E8000396149464B417B614FF000024FF000032E
:102E9000D7E904AB5946CB00514643EA517351463A
:102EA000CA0010461946034642469B18C7F88030B0
:102EB0004B460A4642EB0303C7F88430D7F8F43098
:102EC0005B680022BB67FA674FF000024FF0000317
:102ED000D7E91E8949468B00414643EA9173414632
:102EE0008A00D7E92001FDF7BDF902460B46394BB0
:102EF000A3FB02135B09642101FB03F3D31A1B013B
:102F00003233344AA2FB03235B0903F0F0031C4471
:102F1000D7F8FC3000223B677A67D7E91C89424624
:102F20004B469118B9605B41FB60D7E902234146EB
:102F30005118396049464B417B604FF000024FF019
:102F40000003D7E900AB5946CB00514643EA517321
:102F50005146CA0010461946034642469B18BB66B6
:102F60004B460A4642EB0303FB66D7F8F4305B6836
:102F700000223B667A664FF000024FF00003D7E96B
:102F8000188949468B00414643EA917341468A00BD
:102F9000D7E91A01FDF766F902460B460D4BA3FB74
:102FA00002135B09642101FB03F3D31A1B013233C3
:102FB000084AA2FB03235B0903F00F02D7F8F430A1
:102FC0001B6822449A6000BF07F58077BD46BDE8C4
:102FD000B08F00BF1F85EB5180B483B000AF786025
:102FE0007B6803F108027B685A607B684FF0FF3210
:102FF0009A607B6803F108027B68DA607B6803F102
:1030000008027B681A617B6800221A6000BF0C37D7
:10301000BD465DF8047B704780B483B000AF786034
:103020007B6800221A6100BF0C37BD465DF8047B47
:10303000704780B485B000AF786039607B685B68AA
:10304000FB603B68FA685A60FB689A683B689A6064
:10305000FB689B683A685A60FB683A689A603B680C
:103060007A681A617B681B685A1C7B681A6000BF0B
:103070001437BD465DF8047B704780B485B000AF5F
:10308000786039603B681B68BB60BB68B3F1FF3F89
:1030900003D17B681B69FB600CE07B680833FB6035
:1030A00002E0FB685B68FB60FB685B681B68BA68F2
:1030B0009A42F6D2FB685A683B685A603B685B6884
:1030C0003A689A603B68FA689A60FB683A685A60A6
:1030D0003B687A681A617B681B685A1C7B681A60B7
:1030E00000BF1437BD465DF8047B704780B485B0DF
:1030F00000AF78607B681B69FB607B685B687A68FF
:1031000092689A607B689B687A6852685A60FB682C
:103110005B687A689A4203D17B689A68FB685A6058
:103120007B6800221A61FB681B685A1EFB681A60E4
:10313000FB681B6818461437BD465DF8047B704772
:1031400080B584B000AF786039607B68FB60FB6855
:10315000002B0AD14FF0500383F31188BFF36F8F18
:10316000BFF34F8FBB6000BFFEE701F0D3FFFB68EA
:103170001A68FB68DB6BF968096C01FB03F31A44FE
:10318000FB689A60FB6800229A63FB681A68FB6818
:103190005A60FB681A68FB68DB6B013BF968096CD5
:1031A00001FB03F31A44FB68DA60FB68FF2283F833
:1031B0004420FB68FF2283F845203B68002B14D194
:1031C000FB681B69002B1AD0FB681033184601F00E
:1031D000E5F80346002B12D00C4B4FF080521A60DA
:1031E000BFF34F8FBFF36F8F09E0FB6810331846B2
:1031F000FFF7F2FEFB6824331846FFF7EDFE01F0FF
:10320000B9FF012318461037BD4680BD04ED00E02C
:1032100080B58AB002AFF860B9601346FB71FB68F5
:10322000002B0AD14FF0500383F31188BFF36F8F47
:10323000BFF34F8F3B6100BFFEE7BB68002B02D19D
:103240000023FB6104E0FB68BA6802FB03F3FB6147
:10325000FB695033184602F087F8B861BB69002B50
:103260000DD0BB697B617B6950337B61FA79BB69A7
:10327000009313467A69B968F86800F005F8BB69ED
:1032800018462037BD4680BD80B584B000AFF860D9
:10329000B9607A60FB70BB68002B03D1BB69BA6967
:1032A0001A6002E0BB697A681A60BB69FA68DA637F
:1032B000BB69BA681A640121B869FFF741FFBB69AD
:1032C000FA7883F84C20FB78BA68F968732003F029
:1032D0005DF800BF1037BD4680BD000080B590B0DE
:1032E00002AFF860B9607A603B6000237B63FB68E3
:1032F0003B633B6B002B0AD14FF0500383F31188E3
:10330000BFF36F8FBFF34F8FBB6200BFFEE7BB6899
:10331000002B03D13B6B1B6C002B01D1012300E080
:103320000023002B0AD14FF0500383F31188BFF321
:103330006F8FBFF34F8F7B6200BFFEE73B68022BAE
:1033400003D13B6BDB6B012B01D1012300E0002398
:10335000002B0AD14FF0500383F31188BFF36F8F16
:10336000BFF34F8F3B6200BFFEE701F0B7F90346A2
:10337000002B02D17B68002B01D1012300E0002348
:10338000002B0AD14FF0500383F31188BFF36F8FE6
:10339000BFF34F8FFB6100BFFEE701F0BBFE3B6B4D
:1033A0009A6B3B6BDB6B9A4202D33B68022B36D1A4
:1033B0003B6B184603F076FDBA6879683B6800936A
:1033C0000B4601465A2003F057F83A68B968386B43
:1033D00000F066FAF8623B6B5B6A002B10D03B6B27
:1033E0002433184600F0DAFF0346002B13D04D4B70
:1033F0004FF080521A60BFF34F8FBFF36F8F0AE018
:10340000FB6A002B07D0474B4FF080521A60BFF386
:103410004F8FBFF36F8F01F0ADFE01237DE07B681E
:10342000002B10D101F0A6FE3B6B184603F03AFDCD
:10343000BA6879683B6800930B4601465A2003F04E
:103440001BF8002369E07B6B002B06D107F1140306
:10345000184601F009F801237B6301F08BFE00F0B0
:1034600055FD01F057FE3B6B93F844305BB2B3F16E
:10347000FF3F03D13B6B002283F844203B6B93F862
:1034800045305BB2B3F1FF3F03D13B6B002283F8C1
:10349000452001F06FFE3A1D07F11403114618464E
:1034A00000F0F8FF0346002B24D1386B00F0F0FA4F
:1034B0000346002B18D03B6B10337A681146184630
:1034C00000F01AFF386B00F07BFA00F02DFD034688
:1034D000002B7FF462AF134B4FF080521A60BFF3A2
:1034E0004F8FBFF36F8F58E7386B00F069FA00F029
:1034F0001BFD52E7386B00F063FA00F015FD3B6BE3
:10350000184603F0CFFCBA6879683B6800930B4615
:1035100001465A2002F0B0FF002318463837BD4656
:1035200080BD00BF04ED00E080B58EB000AFF86054
:10353000B9607A603B60FB683B633B6B002B0AD150
:103540004FF0500383F31188BFF36F8FBFF34F8F9A
:103550007B6200BFFEE7BB68002B03D13B6B1B6C9B
:10356000002B01D1012300E00023002B0AD14FF0F2
:10357000500383F31188BFF36F8FBFF34F8F3B620C
:1035800000BFFEE73B68022B03D13B6BDB6B012BDB
:1035900001D1012300E00023002B0AD14FF050039A
:1035A00083F31188BFF36F8FBFF34F8FFB6100BFB1
:1035B000FEE701F099FEEFF311824FF0500383F321
:1035C0001188BFF36F8FBFF34F8FBA617B61BB6907
:1035D000FB623B6B9A6B3B6BDB6B9A4202D33B68A3
:1035E000022B36D13B6B93F8453087F82B303B6B81
:1035F000184603F057FC01467B681A46602002F02B
:103600006BFE3A68B968386B00F04AF997F92B30CD
:10361000B3F1FF3F12D13B6B5B6A002B16D03B6BC3
:103620002433184600F0BAFE0346002B0ED07B6808
:10363000002B0BD07B6801221A6007E097F82B3033
:103640000133DBB25AB23B6B83F8452001237B6325
:103650000BE03B6B184603F025FC01467B681A46DD
:10366000602002F039FE00237B63FB6A3B613B690B
:1036700083F3118800BF7B6B18463837BD4680BD89
:1036800090B58FB002AFF860B9607A600023FB623A
:10369000FB68BB62BB6A002B0AD14FF0500383F377
:1036A0001188BFF36F8FBFF34F8F3B6200BFFEE700
:1036B000BB68002B03D1BB6A1B6C002B01D101231B
:1036C00000E00023002B0AD14FF0500383F3118850
:1036D000BFF36F8FBFF34F8FFB6100BFFEE700F0BA
:1036E000FDFF0346002B02D17B68002B01D1012393
:1036F00000E00023002B0AD14FF0500383F3118820
:10370000BFF36F8FBFF34F8FBB6100BFFEE701F0C8
:1037100001FDBB6A9B6B7B627B6A002B2FD0B96873
:10372000B86A00F027F9BB6A184603F0BBFB0446F1
:10373000002003F0B7FB02467B680121009121467F
:103740005C2002F099FE7B6A5A1EBB6A9A63BB6AD0
:103750001B69002B0FD0BB6A1033184600F01EFE09
:103760000346002B07D04D4B4FF080521A60BFF339
:103770004F8FBFF36F8F01F0FDFC01238AE07B6860
:10378000002B13D101F0F6FCBB6A184603F08AFB4C
:103790000446002003F086FB02467B68012100916D
:1037A00021465C2002F068FE002373E0FB6A002BD8
:1037B00006D107F11003184600F056FE0123FB6204
:1037C00001F0D8FC00F0A2FB01F0A4FCBB6A93F866
:1037D00044305BB2B3F1FF3F03D1BB6A002283F8F0
:1037E0004420BB6A93F845305BB2B3F1FF3F03D18D
:1037F000BB6A002283F8452001F0BCFC3A1D07F1AA
:1038000010031146184600F045FE0346002B24D154
:10381000B86A00F027F90346002B18D0BB6A24339E
:103820007A681146184600F067FDB86A00F0C8F8DB
:1038300000F07AFB0346002B7FF469AF174B4FF083
:1038400080521A60BFF34F8FBFF36F8F5FE7B86A84
:1038500000F0B6F800F068FB59E7B86A00F0B0F87D
:1038600000F062FBB86A00F0FDF80346002B3FF45D
:103870004EAFBB6A184603F015FB0446002003F068
:1038800011FB02467B680121009121465C2002F079
:10389000F3FD002318463437BD4690BD04ED00E02B
:1038A00080B586B000AFF860B9607A6000237B61B4
:1038B000FB689B6B3B61FB681B6C002B0DD1FB68AD
:1038C0001B68002B4DD1FB689B68184600F024FF55
:1038D0007861FB6800229A6043E07B68002B19D175
:1038E000FB685868FB681B6C1A46B96803F056FC05
:1038F000FB685A68FB681B6C1A44FB685A60FB68DB
:103900005A68FB689B689A422BD3FB681A68FB686D
:103910005A6026E0FB68D868FB681B6C1A46B968D9
:1039200003F03CFCFB68DA68FB681B6C5B421A44E2
:10393000FB68DA60FB68DA68FB681B689A4207D2AA
:10394000FB689A68FB681B6C5B421A44FB68DA6090
:103950007B68022B05D13B69002B02D03B69013B00
:103960003B613B695A1CFB689A637B6918461837B0
:10397000BD4680BD80B582B000AF786039607B689D
:103980001B6C002B18D07B68DA687B681B6C1A44B0
:103990007B68DA607B68DA687B689B689A4203D34D
:1039A0007B681A687B68DA607B68D9687B681B6C07
:1039B0001A46386803F0F2FB00BF0837BD4680BDE9
:1039C00080B584B000AF786001F0A4FB7B6893F809
:1039D0004530FB7311E07B685B6A002B12D07B687B
:1039E0002433184600F0DAFC0346002B01D000F027
:1039F000B3FDFB7B013BDBB2FB7397F90F30002B70
:103A0000E9DC00E000BF7B68FF2283F8452001F07D
:103A1000B1FB01F07FFB7B6893F84430BB7311E08E
:103A20007B681B69002B12D07B681033184600F0AE
:103A3000B5FC0346002B01D000F08EFDBB7B013BA3
:103A4000DBB2BB7397F90E30002BE9DC00E000BF5E
:103A50007B68FF2283F8442001F08CFB00BF103705
:103A6000BD4680BD80B584B000AF786001F052FBE8
:103A70007B689B6B002B02D10123FB6001E00023DC
:103A8000FB6001F077FBFB6818461037BD4680BD30
:103A900080B584B000AF786001F03CFB7B689A6B26
:103AA0007B68DB6B9A4202D10123FB6001E00023BB
:103AB000FB6001F05FFBFB6818461037BD4680BD18
:103AC00080B584B000AF786039600023FB601EE0F1
:103AD000134AFB6852F83330002B15D11049FB68AC
:103AE0003A6841F833200E4AFB68DB0013447A68D9
:103AF0005A607B68184603F0D5F901463B681A46C0
:103B0000712002F0E9FB06E0FB680133FB60FB6813
:103B1000072BDDD900BF00BF1037BD4680BD00BFF9
:103B2000C400002080B586B000AFF860B9607A604C
:103B3000FB687B6101F0EEFA7B6993F844305BB27D
:103B4000B3F1FF3F03D17B69002283F844207B69F6
:103B500093F845305BB2B3F1FF3F03D17B6900229C
:103B600083F8452001F006FB7B699B6B002B06D197
:103B70007B6924337A68B968184600F0E1FB7869FC
:103B8000FFF71EFF00BF1837BD4680BD80B58CB063
:103B900004AFF860B9603B601346FB80FB889B0074
:103BA000184601F0E1FB78617B69002B0ED05820AC
:103BB00001F0DAFBF861FB69002B03D0FB697A693D
:103BC0001A6305E0786901F093FC01E00023FB61D2
:103BD000FB69002B13D0FA8800230393FB6902933F
:103BE000FB6A0193BB6A00933B68B968F86800F010
:103BF0000EF8F86900F0A0F80123BB6102E04FF075
:103C0000FF33BB61BB6918462037BD4680BD80B518
:103C100088B000AFF860B9607A603B60BB68002B89
:103C20000AD14FF0500383F31188BFF36F8FBFF3B6
:103C30004F8F7B6100BFFEE73B6B186B7B689B007F
:103C40001A46A52103F0B8FA3B6B1A6B7B6803F1A7
:103C50008043013B9B001344BB61BB6923F0070316
:103C6000BB61BB6903F00703002B0AD04FF0500380
:103C700083F31188BFF36F8FBFF34F8F3B6100BF9A
:103C8000FEE70023FB6112E0BA68FB691344197870
:103C90003A6BFB69134434330A461A70BA68FB69FD
:103CA00013441B78002B06D0FB690133FB61FB69D1
:103CB000092BE9D900E000BF3B6B002283F83D20CF
:103CC000BB6A042B01D90423BB623B6BBA6ADA627C
:103CD0003B6BBA6A9A643B6B0022DA643B6B043339
:103CE0001846FFF799F93B6B18331846FFF794F91C
:103CF0003B6B3A6B1A61BB6AC3F105023B6B9A617D
:103D00003B6B3A6B5A623B6B00221A653B6B00229D
:103D100083F854203A68F968B86901F0D1F802468E
:103D20003B6B1A60FB6A002B02D0FB6A3A6B1A608D
:103D300000BF2037BD4680BDB0B584B002AF78600B
:103D400001F0E8F93B4B1B6801333A4A13603A4BE8
:103D50001B68002B09D1384A7B681360354B1B6800
:103D6000012B10D100F01CFC0DE0344B1B68002B24
:103D700009D1314B1B68DA6A7B68DB6A9A4202D848
:103D80002D4A7B6813602E4B1B6801332C4A13604D
:103D90002B4B1A687B681A647B68002B16D07B68F3
:103DA000184602F059FF78687B6803F134017B689C
:103DB000DA6A7B681B6B1D467B681B681C467B6848
:103DC0001B6BE31A00932B4601F058FD7B681846E5
:103DD00002F0C6FF7B68DB6A01229A40194B1B6820
:103DE0001343184A13607B68DA6A13469B00134436
:103DF0009B00154A1A447B68043319461046FFF7A6
:103E000018F901F0B7F90D4B1B68002B0ED00A4BC7
:103E10001B68DA6A7B68DB6A9A4207D20B4B4FF069
:103E200080521A60BFF34F8FBFF36F8F00BF083708
:103E3000BD46B0BDDC01002004010020E8010020E7
:103E4000F8010020E40100200801002004ED00E05A
:103E500080B586B002AF264B019300230093002368
:103E6000822224492448FFF791FEF860FB68012B69
:103E700002D100F053FDF860FB68012B24D14FF014
:103E8000500383F31188BFF36F8FBFF34F8FBB6075
:103E900000BF1A4B4FF0FF321A60194B01221A6013
:103EA000184B00221A60184B1A68114B1B689A4273
:103EB00002D102F0B5FE04E0134B1B68184602F075
:103EC0000DFF01F085F80EE0FB68B3F1FF3F0AD16A
:103ED0004FF0500383F31188BFF36F8FBFF34F8F01
:103EE0007B6000BFFEE700BF1037BD4680BD00BF4E
:103EF000000200203072000871450008FC0100201B
:103F0000E8010020E00100200401002080B400AF9F
:103F1000044B1B680133034A136000BFBD465DF8C4
:103F2000047B70470402002080B584B000AF0023FA
:103F3000FB600023BB60434B1B68002B0AD14FF092
:103F4000500383F31188BFF36F8FBFF34F8F3B6034
:103F500000BFFEE701F0DEF83A4B1B68013B394A2F
:103F60001360384B1B68002B65D1374B1B68002B47
:103F700061D032E0354BDB68DB68FB60FB681833EF
:103F80001846FFF7B3F8FB6804331846FFF7AEF89E
:103F9000FB68184602F0E4FEFB68DB6A01229A40E7
:103FA0002B4B1B6813432A4A1360FB68DA6A1346DB
:103FB0009B0013449B00274A1A44FB6804331946AC
:103FC0001046FFF736F8FB68DA6A234B1B68DB6A9A
:103FD0009A4202D3214B01221A601C4B1B68002B12
:103FE000C8D1FB68002B01D000F058FB1C4B1B68AC
:103FF0007B607B68002B10D000F058F80346002B44
:1040000002D0164B01221A607B68013B7B607B6803
:10401000002BF1D1124B00221A60104B1B68002BB1
:1040200009D00123BB600F4B4FF080521A60BFF3E1
:104030004F8FBFF36F8F01F09DF8BB6818461037A4
:10404000BD4680BD04020020DC0100209C01002050
:10405000E40100200801002004010020F0010020FC
:10406000EC01002004ED00E080B483B000AF054B0C
:104070001B687B607B6818460C37BD465DF8047B87
:10408000704700BFE001002080B582B000AF01F0B2
:104090002BF900237B60044B1B683B603B68184690
:1040A0000837BD4680BD00BFE001002080B586B066
:1040B00000AF00237B61504B1B68002B40F08C80CD
:1040C0004E4B1B6801333B614C4A3B6913603B69B3
:1040D000002B20D14A4B1B681B68002B0AD04FF0E5
:1040E000500383F31188BFF36F8FBFF34F8F3B6093
:1040F00000BFFEE7424B1B68FB60424B1B68404A17
:104100001360404AFB6813603F4B1B6801333E4A13
:10411000136000F0C3FA3D4B1B683A699A424CD3D6
:10412000374B1B681B68002B04D1384B4FF0FF3214
:104130001A6042E0324B1B68DB68DB68BB60BB681F
:104140005B687B603A697B689A4203D22F4A7B683E
:10415000136032E0BB6804331846FEF7C7FFBB6844
:104160009B6A002B04D0BB6818331846FEF7BEFFCD
:10417000BB68184602F0F4FDBB68DB6A01229A4076
:10418000234B1B681343224A1360BB68DA6A134649
:104190009B0013449B001F4A1A44BB680433194612
:1041A0001046FEF746FFBB68DA6A1B4B1B68DB6AEA
:1041B0009A42B5D301237B61B2E7174B1B68DA6AD9
:1041C000144913469B0013449B000B441B68012BAE
:1041D00007D901237B6104E0104B1B6801330F4AB0
:1041E00013600F4B1B68002B01D001237B617B699F
:1041F00018461837BD4680BD04020020E0010020AB
:104200009401002098010020F4010020FC0100200E
:10421000E40100200801002004010020EC0100203E
:10422000F001002080B586B000AF2D4B1B68002B3D
:1042300003D02C4B01221A604DE02A4B00221A6059
:10424000294B1B68FB60FB68B3FA83F3FB72FB7AB4
:10425000C3F11F037B6125497A6913469B00134410
:104260009B000B441B68002B0AD14FF0500383F3D3
:104270001188BFF36F8FBFF34F8F7B6000BFFEE7E6
:104280007A6913469B0013449B00184A13443B6110
:104290003B695B685A683B695A603B695A683B698D
:1042A00008339A4204D13B695B685A683B695A609B
:1042B0003B695B68DB680E4A13600D4B1A680D4B57
:1042C0001B689A4202D102F0ABFC04E0084B1B6869
:1042D000184602F003FD00BF1837BD4680BD00BF81
:1042E00004020020F0010020E40100200801002069
:1042F000040100200002002080B584B000AF786087
:1043000039607B68002B0AD14FF0500383F311888A
:10431000BFF36F8FBFF34F8FFB6000BFFEE7074B0C
:104320001B68183319467868FEF7A7FE0121386824
:1043300000F07CFA00BF1037BD4680BD04010020AC
:1043400080B586B000AFF860B9607A60FB68002B7A
:104350000AD14FF0500383F31188BFF36F8FBFF37F
:104360004F8F7B6100BFFEE70B4B1B68183319466C
:10437000F868FEF75EFE7B68002B02D04FF0FF333B
:10438000BB60242001F04EFF7968B86800F04EFA57
:1043900000BF1837BD4680BD0401002080B586B03F
:1043A00000AF78607B68DB68DB683B613B69002BB2
:1043B0000AD14FF0500383F31188BFF36F8FBFF31F
:1043C0004F8FFB6000BFFEE73B6918331846FEF7CE
:1043D0008DFE1F4B1B68002B20D13B690433184610
:1043E000FEF784FE3B69184602F0BAFC3B69DB6AC3
:1043F00001229A40174B1B681343164A13603B690E
:10440000DA6A13469B0013449B00134A1A443B6923
:10441000043319461046FEF70CFE05E03B691833DD
:1044200019460E48FEF705FE3B69DA6A0C4B1B681D
:10443000DB6A9A4205D901237B610A4B01221A608B
:1044400001E000237B617B6918461837BD4680BDBB
:1044500004020020E4010020080100209C0100204B
:1044600004010020F001002080B483B000AF786028
:10447000064B1A687B681A60054B1A687B685A609D
:1044800000BF0C37BD465DF8047B7047F401002087
:10449000E001002080B588B000AF786039607B68AB
:1044A000002B0AD14FF0500383F31188BFF36F8FB5
:1044B000BFF34F8F3B6100BFFEE73B68002B0AD183
:1044C0004FF0500383F31188BFF36F8FBFF34F8F0B
:1044D000FB6000BFFEE700F01DFE1D4B1B68BB61CB
:1044E0007B685B68BA69D31A7B613B681B68B3F170
:1044F000FF3F02D10023FB6123E07B681A68154B64
:104500001B689A4207D07B685B68BA699A4202D3FB
:104510000123FB6115E03B681B687A699A420BD264
:104520003B681A687B69D21A3B681A607868FFF7A3
:104530009BFF0023FB6104E03B6800221A6001231B
:10454000FB6100F017FEFB6918462037BD4680BDB1
:10455000E0010020F401002080B400AF034B0122F1
:104560001A6000BFBD465DF8047B7047F001002073
:1045700080B582B000AF786000F052F8064B1B683F
:10458000012BF9D9054B4FF080521A60BFF34F8FC2
:10459000BFF36F8FF0E700BF0801002004ED00E0DB
:1045A00080B582B000AF00237B600CE07A681346D0
:1045B0009B0013449B00124A13441846FEF70CFD5F
:1045C0007B6801337B607B68042BEFD90D48FEF7D5
:1045D00003FD0D48FEF700FD0C48FEF7FDFC0C48FE
:1045E000FEF7FAFC0B48FEF7F7FC0B4B054A1A6086
:1045F0000A4B054A1A6000BF0837BD4680BD00BFA0
:10460000080100206C010020800100209C01002096
:10461000B0010020C8010020940100209801002072
:1046200080B582B000AF19E000F074FD104BDB687C
:10463000DB687B607B6804331846FEF757FD0D4B43
:104640001B68013B0B4A13600B4B1B68013B0A4A7A
:10465000136000F08FFD786800F010F8064B1B68BF
:10466000002BE1D100BF00BF0837BD4680BD00BFB1
:10467000B0010020DC010020C401002080B582B020
:1046800000AF78607B681B6B184600F031FF7868DC
:1046900000F02EFF00BF0837BD4680BD80B483B058
:1046A00000AF0C4B1B681B68002B04D10A4B4FF06A
:1046B000FF321A6008E0074B1B68DB68DB687B6031
:1046C0007B685B68044A136000BF0C37BD465DF829
:1046D000047B704794010020FC01002080B483B06B
:1046E00000AF0B4B1B68002B02D101237B6008E05D
:1046F000084B1B68002B02D102237B6001E00023E2
:104700007B607B6818460C37BD465DF8047B7047BC
:10471000E80100200402002080B586B000AF786078
:104720007B683B6100237B617B68002B73D03C4B33
:104730001B683A699A420AD04FF0500383F31188FC
:10474000BFF36F8FBFF34F8FFB6000BFFEE73B6986
:10475000DB6C002B0AD14FF0500383F31188BFF3B9
:104760006F8FBFF34F8FBB6000BFFEE73B69DB6C11
:104770005A1E3B69DA643B69DA6A3B699B6C9A4270
:1047800049D03B69DB6C002B45D13B6904331846AB
:10479000FEF7ACFC0346002B15D13B69DA6A2149D0
:1047A00013469B0013449B000B441B68002B0AD14B
:1047B0003B69DB6A012202FA03F3DA431A4B1B68F6
:1047C0001340194A13607B6819464A2001F048FDDE
:1047D0003B699A6C3B69DA623B69DB6AC3F10502AB
:1047E0003B699A613B69DB6A01229A400E4B1B6868
:1047F00013430D4A13603B69DA6A13469B00134466
:104800009B00084A1A443B69043319461046FEF7D8
:1048100010FC01237B617B6918461837BD4680BDBB
:104820000401002008010020E401002080B584B0CC
:1048300000AF78603960324B1B68FB60314B1B68FE
:1048400004331846FEF752FC0346002B0BD12D4BC8
:104850001B68DB6A012202FA03F3DA432A4B1B6866
:104860001340294A13607B68B3F1FF3F10D13B68C6
:10487000002B0DD0234B1B681B21184602F0B2FA07
:10488000204B1B68043319462048FEF7D2FB32E068
:10489000FA687B681344BB601A4B1B68BA685A609D
:1048A000BA68FB689A420FD2164B1B68042118465F
:1048B00002F098FA164B1A68124B1B68043319461B
:1048C0001046FEF7DAFB16E00E4B1B680421184673
:1048D00002F088FA0F4B1A680A4B1B68043319461A
:1048E0001046FEF7CAFB0C4B1B68BA689A4202D20C
:1048F000094ABB68136000BF1037BD4680BD00BFCA
:10490000E001002004010020E4010020C801002093
:104910009801002094010020FC01002080B584B0A3
:1049200002AF00237B6000F095FA114B1B68002B4F
:104930000BD0104B01930223009300234FF482729B
:104940000D490E48FFF722F978607B68002B0AD1E9
:104950004FF0500383F31188BFF36F8FBFF34F8F76
:104960003B6000BFFEE77B6818460837BD4680BD48
:10497000380200203C020020387200089D4A0008DE
:1049800080B58AB000AFF860B9607A603B60002300
:104990007B62FB68002B0AD14FF0500383F3118830
:1049A000BFF36F8FBFF34F8F3B6200BFFEE71A4B21
:1049B0001B68002B2AD0BB687B617B68BB61FB68EE
:1049C000FB61BB68052B18DCFFF788FE0346022B52
:1049D00009D1114B186807F1140100233A6BFEF757
:1049E0007DFC786212E00C4B186807F1140100237B
:1049F0000022FEF773FC786208E0074B186807F1A5
:104A0000140100233A68FEF78FFD78627B6A18462E
:104A10002837BD4680BD00BF3802002080B588B071
:104A200002AF786039601C4B1B68DB68DB687B6118
:104A30007B6904331846FEF759FB7B69DB69012B60
:104A400022D17B699A697B68D1187B683A6878695A
:104A500000F0C8F80346002B16D000230093002373
:104A60007A6800217869FFF78BFF38613B69002B7A
:104A70000AD14FF0500383F31188BFF36F8FBFF358
:104A80004F8FFB6000BFFEE77B695B6A78699847E0
:104A900000BF1837BD4680BD3002002080B584B00D
:104AA00000AF786007F10803184600F057F8F86087
:104AB000BB681946F86800F003F800F0D5F8F1E794
:104AC00080B584B000AF78603960FFF71FFA07F156
:104AD0000803184600F066F8F860BB68002B30D178
:104AE0003B68002B0AD17A68FB689A4206D8FFF728
:104AF0001BFAF9687868FFF791FF24E03B68002B08
:104B000008D0134B1B681B68002B01D1012300E068
:104B100000233B600F4B18687A68FB68D31A3A6829
:104B20001946FEF7FFFFFFF7FFF90346002B0AD1F6
:104B3000094B4FF080521A60BFF34F8FBFF36F8F56
:104B400001E0FFF7F1F900BF1037BD4680BD00BF9F
:104B5000340200203802002004ED00E080B485B06B
:104B600000AF78600E4B1B681B68002B01D101223F
:104B700000E000227B681A607B681B68002B05D16F
:104B8000074B1B68DB681B68FB6001E00023FB60D0
:104B9000FB6818461437BD465DF8047B704700BFBC
:104BA0003002002080B584B000AF7860FFF75CFA77
:104BB000F8600B4B1B68FA689A4205D200F0E8F8DF
:104BC0007B6801221A6002E07B6800221A60044AB6
:104BD000FB681360FB6818461037BD4680BD00BFF8
:104BE0004002002080B586B000AFF860B9607A60FE
:104BF0003B6000237B61FB68BA685A60FB68FA6817
:104C00001A61BA687B689A4212D87A683B68D21AED
:104C1000FB689B699A4202D301237B611BE0104B26
:104C20001A68FB68043319461046FEF726FA12E0AC
:104C30007A683B689A4206D2BA683B689A4202D3C5
:104C400001237B6107E0074B1A68FB6804331946B0
:104C50001046FEF712FA7B6918461837BD4680BD2C
:104C6000340200203002002080B58CB002AF7CE01E
:104C7000BB68002B78DB3B697B627B6A5B69002B3E
:104C800004D07B6A04331846FEF730FA3B1D184601
:104C9000FFF788FF3862BB68092B66D801A252F87B
:104CA00023F000BFCD4C0008CD4C0008CD4C0008CF
:104CB0006B4D0008294D0008614D0008CD4C0008DF
:104CC000CD4C00086B4D0008294D0008FA687B6A3E
:104CD0009B69D118FB683A6A786AFFF783FF03463D
:104CE000002B42D07B6A5B6A786A98477B6ADB69F3
:104CF000012B3AD1FA687B6A9B691A44002300931E
:104D000000230021786AFFF73BFEF861FB69002B66
:104D10002BD14FF0500383F31188BFF36F8FBFF394
:104D20004F8FBB6100BFFEE7FA687B6A9A617B6ABE
:104D30009B69002B0AD14FF0500383F31188BFF316
:104D40006F8FBFF34F8F7B6100BFFEE77B6A9A696D
:104D50003B6AD1183B6A3A6A786AFFF743FF04E07E
:104D6000786A00F0C5FB00E000BF084B1B6807F144
:104D7000080100221846FEF783FC0346002B7FF44F
:104D800077AF00BF00BF2837BD4680BD3802002086
:104D900080B588B002AF45E02C4B1B68DB681B6810
:104DA0003B612A4B1B68DB68DB68FB60FB680433F4
:104DB0001846FEF79BF9FB685B6AF8689847FB6842
:104DC000DB69012B2ED1FB689B693A691344BB60F8
:104DD000BA683B699A420ED9FB68BA685A60FB68A8
:104DE000FA681A61194B1A68FB68043319461046B1
:104DF000FEF743F916E00023009300233A690021EF
:104E0000F868FFF7BDFD78607B68002B0AD14FF092
:104E1000500383F31188BFF36F8FBFF34F8F3B6055
:104E200000BFFEE7094B1B681B68002BB4D1074B82
:104E30001B687B61064B1B68044A1360044A7B694C
:104E4000136000BF1837BD4680BD00BF3002002090
:104E50003402002080B500AF00F05CF9124B1B68F3
:104E6000002B1DD11148FEF7B7F81148FEF7B4F832
:104E7000104B0E4A1A60104B0D4A1A6000220C218A
:104E80000A20FEF7C5F90346074A1360064B1B6864
:104E9000002B05D0044B1B6808491846FEF710FE8E
:104EA00000F068F900BF80BD380200200802002031
:104EB0001C02002030020020340200204072000852
:104EC00080B485B000AFF860B9607A60FB68043BDD
:104ED000FB60FB684FF080721A60FB68043BFB606C
:104EE000BB6823F00102FB681A60FB68043BFB60AF
:104EF0000C4AFB681A60FB68143BFB607A68FB682D
:104F00001A60FB68043BFB60FB686FF002021A60EA
:104F1000FB68203BFB60FB6818461437BD465DF814
:104F2000047B7047294F000880B485B000AF002390
:104F30007B60124B1B68B3F1FF3F0AD04FF0500368
:104F400083F31188BFF36F8FBFF34F8FFB6000BFF8
:104F5000FEE74FF0500383F31188BFF36F8FBFF369
:104F60004F8FBB6000BF00BF7B68002BFCD000BF31
:104F700000BF1437BD465DF8047B70470C0000206D
:104F8000074B19680868B0E8F04F80F30988BFF351
:104F90006F8F4FF0000080F311887047AFF30080EF
:104FA0000401002000BF00BF08480068006880F3CB
:104FB00008884FF0000080F3148862B661B6BFF332
:104FC0004F8FBFF36F8F00DF00BF00BF08ED00E021
:104FD00080B586B000AF464B1B68464A93420AD163
:104FE0004FF0500383F31188BFF36F8FBFF34F8FE0
:104FF0003B6100BFFEE73E4B1B683F4A93420AD12C
:105000004FF0500383F31188BFF36F8FBFF34F8FBF
:10501000FB6000BFFEE7394B7B617B691B78DBB22D
:105020007B607B69FF221A707B691B78DBB2FB70A7
:10503000FB78DBB203F05003DAB2314B1A70314B1C
:1050400007221A6009E02F4B1B68013B2D4A1360B1
:10505000FB78DBB25B00DBB2FB70FB78DBB203F00A
:105060008003802BEFD0274B1B68C3F10703042B71
:105070000AD04FF0500383F31188BFF36F8FBFF353
:105080004F8FBB6000BFFEE71E4B1B681B021D4A13
:1050900013601C4B1B6803F4E0631A4A13607B68BF
:1050A000DAB27B691A70184B1B68174A43F4700315
:1050B0001360154B1B68144A43F07043136000F0F3
:1050C000E5F8124B00221A6000F004F9104B1B683F
:1050D0000F4A43F040431360FFF766FFFFF7A2F863
:1050E000FFF722FF002318461837BD4680BD00BFDA
:1050F00000ED00E071C20F4170C20F4100E400E01A
:10510000440200204802002020ED00E00C000020B6
:1051100034EF00E080B483B000AF4FF0500383F36E
:105120001188BFF36F8FBFF34F8F7B6000BF0F4BB2
:105130001B6801330D4A13600C4B1B68012B0FD108
:105140000B4B1B68DBB2002B0AD04FF0500383F3EC
:105150001188BFF36F8FBFF34F8F3B6000BFFEE737
:1051600000BF0C37BD465DF8047B70470C00002083
:1051700004ED00E080B483B000AF124B1B68002B3D
:105180000AD14FF0500383F31188BFF36F8FBFF341
:105190004F8F7B6000BFFEE70A4B1B68013B094A4B
:1051A0001360084B1B68002B05D100233B603B6854
:1051B00083F3118800BF00BF0C37BD465DF8047B48
:1051C000704700BF0C00002000000000000000003D
:1051D000EFF30980BFF36F8F154B1A681EF0100FA5
:1051E00008BF20ED108A20E9F04F10602DE909007A
:1051F0004FF0500080F31188BFF34F8FBFF36F8FD4
:10520000FFF710F84FF0000080F3118809BC19680F
:105210000868B0E8F04F1EF0100F08BFB0EC108A1D
:1052200080F30988BFF36F8F704700BFAFF3008032
:105230000401002000BF00BF80B582B000AF4FF076
:10524000500383F31188BFF36F8FBFF34F8F7B60E1
:1052500000BF01F06BFCFEF729FF0346002B06D0D0
:1052600001F0C2FC084B4FF080521A6001E001F0DF
:105270009FFC00233B603B6883F3118800BF00BFA5
:105280000837BD4680BD00BF04ED00E080B400AF2C
:105290000B4B00221A600B4B00221A600A4B1B6852
:1052A0000A4AA2FB03239B09094A013B1360044BF2
:1052B00007221A6000BFBD465DF8047B704700BF3F
:1052C00010E000E018E000E000000020D34D621084
:1052D00014E000E0DFF80C00016841F470010160A7
:1052E000704700BF88ED00E080B485B000AFEFF3F9
:1052F0000583FB60FB680F2B14D9174AFB68134426
:105300001B78FB72154B1B78FA7A9A420AD24FF03F
:10531000500383F31188BFF36F8FBFF34F8F7B6010
:1053200000BFFEE70E4B1B6803F4E0620D4B1B68E9
:105330009A420AD94FF0500383F31188BFF36F8F5D
:10534000BFF34F8F3B6000BFFEE700BF1437BD4681
:105350005DF8047B704700BFF0E300E044020020EA
:105360000CED00E04802002080B58AB000AF786004
:105370000023FB61FEF7CAFD584B1B68002B01D1CF
:1053800000F010F9564B1A687B681340002B40F070
:105390008E807B68002B1DD008227B6813447B60C5
:1053A0007B6803F00703002B14D07B6823F007030E
:1053B00008337B607B6803F00703002B0AD04FF0B3
:1053C000500383F31188BFF36F8FBFF34F8F7B615F
:1053D00000BFFEE77B68002B69D0424B1B687A68F0
:1053E0009A4264D8404B3B623F4B1B687B6204E0AF
:1053F0007B6A3B627B6A1B687B627B6A5B687A685C
:105400009A4203D97B6A1B68002BF1D1334B1B688E
:105410007A6A9A424BD03B6A1B6808221344FB61AC
:105420007B6A1A683B6A1A607B6A5A687B68D21A80
:1054300008235B009A421FD97A6A7B681344BB61D8
:10544000BB6903F00703002B0AD04FF0500383F32E
:105450001188BFF36F8FBFF34F8F3B6100BFFEE733
:105460007B6A5A687B68D21ABB695A607B6A7A6821
:105470005A60B86900F0F8F81A4B1A687B6A5B68E2
:10548000D31A184A1360174B1A68184B1B689A42B4
:1054900003D2144B1B68154A13607B6A5A68104B81
:1054A0001B681A437B6A5A607B6A00221A60FEF707
:1054B0003BFDFB6903F00703002B0AD04FF05003BC
:1054C00083F31188BFF36F8FBFF34F8FFB6000BF73
:1054D000FEE7FB6918462837BD4680BD542E0120E3
:1054E000602E0120582E01204C2E01205C2E012020
:1054F00080B586B000AF78607B687B617B68002BED
:1055000048D008235B427A6913447B617B693B6125
:105510003B695A68214B1B681340002B0AD14FF09E
:10552000500383F31188BFF36F8FBFF34F8FFB607E
:1055300000BFFEE73B691B68002B0AD04FF0500309
:1055400083F31188BFF36F8FBFF34F8FBB6000BF32
:10555000FEE73B695A68114B1B681340002B19D0BA
:105560003B691B68002B15D13B695A680B4B1B68C4
:10557000DB431A403B695A60FEF7C8FC3B695A6836
:10558000074B1B681344064A1360386900F06CF837
:10559000FEF7CAFC00BF1837BD4680BD602E012053
:1055A000582E012080B485B000AF4FF49633BB6015
:1055B000274BFB60FB6803F00703002B0CD0FB6854
:1055C0000733FB60FB6823F00703FB60BA68FB68E6
:1055D000D31A1F4A1344BB60FB687B601D4A7B687B
:1055E00013601C4B00225A607B68BA681344FB604E
:1055F0000822FB689B1AFB60FB6823F00703FB6033
:10560000FB68154A1360144B1B6800225A60124B4A
:105610001B6800221A607B683B603B68FA68D21AFC
:105620003B685A600C4B1A683B681A603B685B68C1
:105630000A4A13603B685B68094A1360094B4FF0E4
:1056400000421A6000BF1437BD465DF8047B704706
:105650004C0200204C2E0120542E01205C2E0120F3
:10566000582E0120602E012080B485B000AF7860F4
:10567000284BFB6002E0FB681B68FB60FB681B6853
:105680007A689A42F7D8FB68BB60FB685B68BA68C7
:1056900013447A689A4208D1FB685A687B685B6851
:1056A0001A44FB685A60FB687B607B68BB607B6860
:1056B0005B68BA681A44FB681B689A4218D1FB6899
:1056C0001A68154B1B689A420DD07B685A68FB68B4
:1056D0001B685B681A447B685A60FB681B681A6821
:1056E0007B681A6008E00C4B1A687B681A6003E05C
:1056F000FB681A687B681A60FA687B689A4202D075
:10570000FB687A681A6000BF1437BD465DF8047BF9
:10571000704700BF4C2E0120542E012080B500AFF1
:10572000034801F0ADF9034801F0AAF900BF80BDBC
:10573000487200087C72000880B500AF064B1868FC
:10574000054B1968054B064A00F018FD4FF0005054
:1057500000F058FD00BF80BD000000201D5700086C
:105760001C730008F0B585B002AF00237B6033E006
:105770001E497A6813469B0013449B000B4418682B
:105780001A497A6813469B0013449B000B44043368
:105790001968164C7A6813469B0013449B002344F7
:1057A00008331C68114D7A6813469B0013449B0014
:1057B0002B440C331D680D4E7A6813469B0013442E
:1057C0009B00334410331B6800932B46224600F0A5
:1057D000BDF87B6801337B60054B1B687A689A4291
:1057E000C6D300BF00BF0C37BD46F0BD642E0120FC
:1057F000042F01202DE9B04F82B000AFFEF744FC2A
:10580000034600229A469346C7E900ABD7E9000158
:1058100002460B464FF0000A4FF0000B4FEA431BC5
:105820004BEAD26B4FEA421A52465B46141A63EBBC
:1058300001054FF000024FF00003AB0043EA947300
:10584000A20014461D4614EB000845EB01094FF079
:1058500000024FF000034FEAC90343EA58734FEACE
:10586000C80290469946C7E90089D7E90023104647
:1058700019460837BD46BDE8B08F000080B586B038
:1058800002AFF860B9607A603B6005222B49B868C6
:1058900001F074FC0346002B4BD0294B1B68072BEF
:1058A00003D9284801F0EAFB44E0254B1A68264951
:1058B00013469B0013449B000B44FA681A60204B6C
:1058C0001A68214913469B0013449B000B44043380
:1058D000BA681A601A4B1A681B4913469B00134496
:1058E0009B000B4408337A681A60154B1A681649F6
:1058F00013469B0013449B000B440C333A681A6018
:105900000F4B1A68104913469B0013449B000B442D
:105910001033BA691A600A4B1B680133084A1360D6
:10592000BB6900933B687A68B968F86800F00EF8C4
:1059300000E000BF1037BD4680BD00BF8C7200087C
:10594000042F012094720008642E012080B58AB0D3
:1059500000AFF860B9607A603B6007F1140314226D
:105960000021184601F028FCFB687B61BB68BB6125
:105970007B68FB613B683B623B6B7B6207F1140316
:10598000184600F085FF00BF2837BD4680BD0000E7
:1059900080B483B000AF244B7B607B6803221A6124
:1059A0007B6803225A617B68204A9A617B68204A9F
:1059B000DA617B684FF480621A627B6800229A6227
:1059C0007B6800225A627B680022DA627B68174A91
:1059D0001A667B68174A5A667B6810229A667B684B
:1059E00000221A677B680022DA667B6800225A6709
:1059F0007B680733104A10681860BFF35F8F7B68BD
:105A00000E4A106818609188927999809A71BFF354
:105A10005F8F7B6820229A71BFF35F8F00BF0C37C6
:105A2000BD465DF8047B7047082F0120E472000832
:105A3000B02F0120B0330120F0720008F47200088A
:105A400080B58CB000AFF860B9607A603E4B3B62C5
:105A50003B6A1B78DBB2002B01D1FFF799FFFA6894
:105A600013465B001344DB006033374A1344FB6189
:105A7000BB687B62FB691B69BB62FB69DB68BB615E
:105A80000023FB62BA6ABB699A422BD9FB699A6808
:105A9000BB6AD31A7B617A697B68934228BF13463D
:105AA0007B61FB695A68BB6A13443B617A69396957
:105AB000786A01F073FBFA6A7B691344FB627A6AC5
:105AC0007B6913447B627A687B69D31A7B60BA6A0C
:105AD0007B691344BB62FB699B68BA6A9A4201D135
